:020000040800F2
:10000000F82A002045030008C9340008D13300084D
:10001000C134000801160008D140000800000000AB
:100020000000000000000000000000007135000822
:10003000091600080000000041350008D935000805
:100040005F0300085F0300085F0300085F03000808
:100050005F0300085F0300085F0300085F030008F8
:100060005F0300085F0300085F0300085F030008E8
:100070005F0300085F0300085F0300085F030008D8
:100080005F0300085F0300085F0300085F030008C8
:100090005F0300085F0300085F0300085F030008B8
:1000A0005F0300085F0300085F0300085F030008A8
:1000B0005F0300085F0300085F0300085F03000898
:1000C0005F0300085F0300085F0300085F03000888
:1000D0005F0300085F0300085F0300085F03000878
:1000E0005F0300085F0300085F0300085F03000868
:1000F0005F0300085F0300085F0300085F03000858
:100100005F0300085F0300085F0300085F03000847
:100110005F0300085F0300085F0300085F03000837
:100120005F0300085F0300085F0300085F03000827
:100130005F0300085F0300085F0300085F03000817
:100140005F0300085F0300085F0300085F03000807
:100150005F0300085F0300085F0300085F030008F7
:100160005F0300085F0300085F0300085F030008E7
:100170005F0300085F0300085F0300080000000041
:100180005F0300085F0300085F0300085F030008C7
:100190005F0300085F0300085F0300085F030008B7
:1001A0005F0300085F0300085F0300085F030008A7
:1001B0005F0300085F0300085F0300085F03000897
:1001C0005F0300085F030008000000005F030008F1
:1001D0005F0300085F0300085F0300085F03000877
:1001E0005F0300085F0300085F0300085F03000867
:1001F0005F0300085F03000800F002F800F092F8C7
:100200000AA090E8000C82448344AAF10107DA4571
:1002100001D100F087F8AFF2090EBAE80F0013F031
:10022000010F18BFFB1A43F001031847584D000097
:10023000784D0000103A24BF78C878C1FAD8520728
:1002400024BF30C830C144BF04680C607047000050
:100250000023002400250026103A28BF78C1FBD8CF
:10026000520728BF30C148BF0B6070476E2900F0AD
:10027000FF81702900F04183662904F0D08565294B
:1002800004F0CD85672904F0CA85612904F0C98589
:1002900003681B0A28BF41F08001692900F0AC8186
:1002A000642900F0A981752900F0A6816F2900F06A
:1002B000CF82782900F00D83E92900F06982E429D2
:1002C00000F06682F52900F06382EF2900F0CC820D
:1002D000F82900F00C830368DB0928BF41F0800196
:1002E000632901F00D80732901F01280E32901F0E8
:1002F0001D80F32901F02280002070471FB504F013
:1003000081FD01F071F804000020002104F064FD7B
:10031000401C60600020002104F048FDE0601FBD2B
:1003200010B510BD01F032F81146FFF7E7FF03F0FA
:1003300027FF01F00FF903B4FFF7F2FF03BC01F050
:1003400055F900000948804709480047FEE7FEE7E5
:10035000FEE7FEE7FEE7FEE7FEE7FEE7FEE7FEE775
:1003600004480549054A064B70470000413700081C
:10037000F9010008F8150020F82A0020F81A0020DA
:10038000F81A002053EA020C00F069802DE9F04BC6
:100390004FF00006002B1FBFB3FA83F503FA05F4F4
:1003A00024FA05F65E4012BF1643B2FA82F502FA4D
:1003B00005F4C5F120051EBF22FA05FC44EA0C0431
:1003C000203556EA044C4FEA144418BF641C4FF021
:1003D00000084FF00009904271EB030C39D300295B
:1003E00019BFB1FA81F701FA07F6B0FA80F700FAFF
:1003F00007F6C7F120071EBF20FA07FC46EA0C06E5
:100400002037B6FBF4FCA7EB0507103F07F01F0BE6
:10041000CBF120062CFA06F60CFA0BFB44BFB346D0
:100420000026202FA4BF5E464FF0000B5BEA060CAF
:1004300008BF4FF0010B19EB0B0948EB0608ABFBAB
:10044000027C06FB02CC0BFB03CCC01B71EB0C0146
:10045000C1E70B46024641464846BDE8F08B13B55E
:10046000084318BF4FF0FF300146AFF30080BDE8EE
:100470001C4070470FB41CB5084B06AA7B44694664
:100480000090059800F00DF904460020694600F040
:100490001BF920461CBC5DF814FB0000490200005B
:1004A00010B5431C02E010F8011B71B18107FAD1AD
:1004B0004FF0013202C88C1A8C4314EAC211F9D0F1
:1004C000C01A0A0603D0C01E10BDC01A10BD0A040F
:1004D00001D0801E10BD0902FCD0401E10BD4FF09F
:1004E000000200B5134694469646203922BFA0E884
:1004F0000C50A0E80C50B1F12001BFF4F7AF090790
:1005000028BFA0E80C5048BF0CC05DF804EB890080
:1005100028BF40F8042B08BF704748BF20F8022BC3
:1005200011F0804F18BF00F8012B704770477047DB
:10053000704770B5044685690068C10601D530264C
:1005400000E02026C00707D070BDD4E90121304665
:100550009047206A401C20626D1EF6D570BD70B5B4
:10056000044685690078C00707D170BDD4E9012130
:1005700020209047206A401C20626D1EF6D570BD79
:1005800009684A0501D540B27047C905FCD500B2DB
:10059000704709684A0501D5C0B27047C905FCD546
:1005A00080B2704770B50C460546012A05D0287800
:1005B000800600D5EA69002302E0012305E05B1C08
:1005C000934202D2E05C0028F9D1A869E618C01A6B
:1005D000A861286A184428622846FFF7AAFF04E0A9
:1005E000D5E9012114F8010B9047B442F8D328460D
:1005F000FFF7B5FF70BD00002DE9F041064600246D
:1006000010687529314616A510D0FFF7B9FF0028EC
:1006100002DA404213A507E031688A0701D512A526
:1006200002E0490704D511A5012401E0FFF7B1FF5D
:1006300000210A2206F1240709E0B0FBF2FCB0FB1E
:10064000F2F302FB1C00303078541846491C002895
:10065000F3D123462A463046BDE8F04100F061BAA6
:10066000000000002D0000002B0000002000000012
:1006700011680268006A530501D508700AE0D305C5
:1006800001D5088006E0130603D5C217C1E90002B0
:1006900000E008600120704701694A1C0261087887
:1006A000704700B58FB0CDE90131002105910549B2
:1006B0007944CDE903101146684600F029F90FB0DE
:1006C00000BD0000E5FFFFFF0A6802F8010B0A60A9
:1006D000704700002DE9FF5F15468A460446DFF8A3
:1006E000AC80F8440027D8E900103E46CDE9001060
:1006F00010E03AF816106A4602A800F023FE411CEA
:1007000007D02178890603D5E269391891420DD8BE
:100710000744761C2078800602D5E069B84205DDE2
:10072000AE42E6DB3AF816000028E2D1A069C01B11
:10073000A0612046FFF7FDFED8E90010CDE90010CA
:10074000002017E03AF818106A4602A800F0FAFDF7
:10075000B0F1FF3F81460BD000250DF1080B05E0FD
:10076000D4E901211BF8050090476D1C4D45F7D3D6
:1007700008F10100B0428046E4DB206A3844206280
:100780002046FFF7ECFEBDE8FF9F00004247000057
:100790002DE9F0418046D21D22F007020025D2E962
:1007A0000002F52915A614D0011E72F1000106DA27
:1007B0000023D0EB030063EB020211A608E0D8F897
:1007C00000108B0701D50FA602E0490701D50EA640
:1007D00001251146002408F1240704E000F05CF92B
:1007E00030323A55641C50EA0102F7D12B463246AA
:1007F00021464046BDE8F04100F093B900000000FA
:100800002D0000002B0000002000000030B400216B
:1008100000F1240408E002F00705D208303542EA6E
:100820004372DB086554491C52EA0305F3D104689E
:10083000002310A2250708D504F020040C4304D09F
:10084000C46901230CA2641EC46130BC00F069B904
:1008500010B5044621461068FFF79BFE024620466D
:10086000BDE810400023D1E7D21D22F00701D1E9F5
:100870000023CBE70000000030000000F0B40D467C
:100880000188090502D5214C7C4402E01F4C7C44C0
:100890000E34002100F1240608E002F00F071209CF
:1008A000E75D42EA03721B097754491C52EA0307C9
:1008B000F3D102780023120704D5702D06D009B1B8
:1008C000022311342246F0BC00F02BB9012310346E
:1008D000F8E770B504460D4621461068FFF759FE4B
:1008E000024629462046BDE870400023C6E7D21DD7
:1008F00022F00703D3E90023C0E70368126843F03E
:10090000200303600823C3610023B7E7A445000068
:100910002DE9F05F894604464FF0000ADFF874B114
:10092000FB44C0F820A02046E1688847002874D026
:10093000252806D0D4E901219047206A401C206276
:10094000F1E700265F462046E168884720280546F3
:1009500007DB312D05D2781910F8200C08B10643B9
:10096000F1E7B00701D526F00406C4F81CA0002763
:10097000C4F818A02A2D09D0284604F00FFA38B37D
:1009800004EB8708303DC8F8185019E059F8041BEB
:10099000204604EB87029161E1688847012F0546F4
:1009A00018D1E069002820DA26F020061DE0D8F8EA
:1009B000180000EB800005EB40003038C8F8180044
:1009C0002046E1688847054604F0E8F90028EED1A2
:1009D000012F0AD02E2D08D12046E16888477F1CC0
:1009E0000546022F46F02006C4DBA069002803DA82
:1009F000404246F00106A061F00701D026F0100643
:100A00006C2D0BD0682D09D04C2D39D06A2D35D0E6
:100A1000742D35D07A2D33D016E038E0E1682F46BA
:100A200020468847B842054609D16C2F26D04FF49E
:100A30008060E168064320468847054604E06C2F45
:100A40001AD04FF4807006430DB3A5F14100192868
:100A500002D8203546F400664A46294620462660DC
:100A60004E46FFF703FC80B101280BD0F61D26F09F
:100A7000070000F1080956E74020E4E78020D8E7A6
:100A80000020D6E706F104094DE7284652E7206A20
:100A9000BDE8F09F3445000030B5B0F10A0271F1B5
:100AA00000034FEA900E4EEA817EB0EB0E0061EB40
:100AB00091014FEA101E4EEA017E10EB0E0041EB51
:100AC00011114FEA102E4EEA016E10EB0E0041EBB1
:100AD00011214FEA104E4EEA014E10EB0E0041EB91
:100AE0001141401841F100014FEAD00040EA417045
:100AF0004FEAD1014FEA810444EA907410EB80057B
:100B000044EB01046D1944EB0404521BA3414FF064
:100B1000000348BF0A3200D530BD401C41F100013E
:100B200030BD2DE9F0470D4699469246044600F146
:100B300024080168880604D5E06921F010012160CD
:100B400000E00120A84201DD471B00E00027A16969
:100B50007A1902EB0900081AA0612078C00602D4B5
:100B60002046FFF7E6FC002608E0D4E901211AF848
:100B700006009047206A401C761C20624E45F4DB3C
:100B80002078C0060AD52046FFF7D3FC06E0D4E95A
:100B9000012130209047206A401C2062381EA7F1B6
:100BA0000107F4DC07E0D4E9012118F805009047BB
:100BB000206A401C2062281EA5F10105F3DC2046B6
:100BC000FFF7CDFC2078000602D50220BDE8F087B3
:100BD0000120FBE72DE9FF4F0C461E464FF0FF3783
:100BE0008BB0D2E90001DDF860800A908A46C1F33B
:100BF0000A5505B93D46002108464FF00000BAF1FC
:100C0000000F00F4400005DA00EB80004FF44001D3
:100C100001EA50004FEA9059B9F1010F00DDB946E1
:100C20000A9850EA4A000ED044F61050A5F2FF355B
:100C300045432F14B8F1000F1ED07542291E1EDD4A
:100C4000C9F100021CE0B8F1010F4FF0000001D023
:100C5000302103E0F24305E02154401CB042FBDBAD
:100C600030460022002121540B99C1F80880C1E9C7
:100C700000200FB0BDE8F08FBD1B6D1CDEE74A46BB
:100C800000DA694206A800F0F3FB06AB93E8070020
:100C900003AB83E8070050460A9903F09EFC8DE8F9
:100CA0000700A0F500501F3800900398002D0ADDC2
:100CB00042F21F014A460844002303A903906846F4
:100CC00003F008FF09E0A0F500504A461F38002352
:100CD00003A90390684603F012FF8DE807000004A3
:100CE000000C03D04FF0FF30410800E01046B8F18F
:100CF000000F03D00022009215461EE0751E05D499
:100D0000FFF7CAFE303262556D1EF9D5B346012297
:100D1000084302D000227F1C04E02078302801D153
:100D200000227F1E002A099784D01DE0112D07DACA
:100D3000FFF7B2FE303262556D1C50EA0102F5D168
:100D4000084302D00098C8B10EE00021681E05E0FB
:100D5000235C625C63542254401E491C8142F7DBD1
:100D6000AB46A81B401E0990002004F80B000B980E
:100D7000099AC0F80880C0E9002B7AE711264FF0E5
:100D8000000857E72DE9F04F88460446D21D22F0AF
:100D9000070191B0D1E90001CDE90A0103F0E6FFB6
:100DA00002460B98C00F01D02D2007E02068810774
:100DB00001D52B2002E0202101EAC000032A09907E
:100DC00001D0072A05DB03464146204600F010FB10
:100DD0000BE12078800601D5E06900E00620B8F13B
:100DE000650F814606D0B8F1660F18D0B8F1670FCD
:100DF00070D131E00020B9F1110F009001DB112317
:100E000001E009F101030AAA01A90CA8FFF7E2FE1B
:100E1000DDE90C70002609F10105834647E0012059
:100E20004B4600904FF000470AAA01A90CA8FFF713
:100E3000D1FEDDE90DB00C995D46002610B909F12F
:100E400001000D18B9EB050003D4C0F1FF3609F11C
:100E50000105A5EB09002BE0B9F1010F01DA4FF014
:100E600001090020B9F1110F0090484601DD11235E
:100E700000E003460AAA01A90CA8FFF7ABFEDDE9D2
:100E80000C704D4600268346207800070AD4AB45F7
:100E900000DA5D4601A8012D04DD411911F8011C9D
:100EA000302907D04F4502DA17F1040F04DA012088
:100EB00082460FE06D1EEEE7002F02DCED1B3E4484
:100EC00003E0781CA84200DD7D1CB81B00F1010A7C
:100ED0004FF000472078000703D4AA4501DB4FF00C
:100EE000FF3A0021B7F1004F0DF143088DF8431090
:100EF00024D002202B23002F01DA7F422D230A2148
:100F0000021EA0F1010000DC5FB197FBF1FC97FB32
:100F1000F1F201FB1C7C17460CF1300C08F801CDF6
:100F2000EEE7A8F1010003702188090501D54521EC
:100F300000E06521A0F1010800F8011C09980FA943
:100F4000A1EB0807FF1D00B10120411901EBEA7078
:100F5000A1693844081A401EA0612078C00602D456
:100F60002046FFF7E6FA099828B1D4E90121904715
:100F7000206A401C20622078C00622D52046FFF758
:100F8000D8FA1EE0002E04DBB34502DD01A8805D27
:100F900000E03020D4E901219047206A401C206203
:100FA000761CAAF101005FEA000A0AD100F01CFADF
:100FB000C0680168405CD4E901219047206A401C68
:100FC0002062281EA5F10105DCDC07E0D4E901213F
:100FD00018F8010B9047206A401C2062381EA7F1C8
:100FE0000107F3DC2046FFF7BAFA032011B041E60F
:100FF0002DE9F04F04460D46D21D22F0070089B0BE
:10100000D0E900974846394603F0B0FE0246F80F93
:1010100001D02D2307E02068810701D52B2302E0B2
:10102000202101EAC0038DF820300BB1012000E03F
:101030000020032A824601D0072A04DB29462046E5
:1010400000F0D6F93FE12078800601D40D2500E0BC
:10105000E569C7F30A560D2D49DA00214FEA175BFF
:1010600008464FF00000002F00F4400007DA00EBC4
:1010700080004FF4400100EBD07001EA6000811560
:10108000012901DD4FF0FF3100224FEA850CBCF150
:10109000180F06D31346ACF118004FF08052C2402F
:1010A00003E04FF4801323FA0CF30CF10C0CBCF1A9
:1010B000200F04D3ACF1200C09FA0CF001E007FA80
:1010C0000CF000294FF0004801DD18B90FE00ED1F7
:1010D00040450CD319EB02095F4121B9404502D1CB
:1010E0009F4329EA0209BBEB175F00D0761C2088DA
:1010F000000502D57B48784402E07A4878441938E4
:1011000008AA302302F80A30037C0AF10101002EFC
:101110000AF1020A53546A4602DC4FF0300101E042
:101120004FF031014FF001088DF8001002D0A6F207
:10113000FF3603E059EA470100D06B4E002D02DC78
:101140002178090704D54FF002082E218DF80110EF
:10115000C44600210BE0C7F303433F01C35C491CB5
:101160006D1E02F80830052908F1010801DA002D8A
:10117000F1DC00210CE000EB1973491C1B786D1E9B
:10118000082902F808304FEA091908F1010801DAC4
:10119000002DF0DC21688B0602D516E0A8F10108CD
:1011A000E04505DD02EB080313F8013C302BF5D0D8
:1011B000B8F1000F09DD02EB080313F8013C2E2BF8
:1011C00003D1090701D4A8F10108002D05DD3E2156
:1011D00002F808106D1E08F10108407C002E02F88C
:1011E000080008F1010804DA2D20764202F8080010
:1011F00002E02B2002F808000A214FF47A708642A0
:1012000008F101080BDB96FBF0F3303302F80830ED
:1012100096FBF0F308F1010800FB136601E0642E71
:101220000CDB642096FBF0F3303302F8083096FBB9
:10123000F0F308F1010800FB136601E00A2E06DB5B
:1012400096FBF1F0303002F8080008F1010896FB37
:10125000F1F001FB1060303002F80800A16908F1DC
:10126000010808EB050202EB0A00081AA0612078C9
:10127000C00602D42046FFF75CF9216A08AE01EBF4
:101280000A00206204E0D4E9012116F8010B90471E
:10129000BAF1010AF7D22078C00602D52046FFF73E
:1012A00048F96E4609E016F8010B3E280FD0D4E944
:1012B00001219047206A401C2062B8F10108F2D257
:1012C0002046FFF74CF909B00320BDE8F08F206AF3
:1012D0002844206203E0D4E90121302090476D1EAC
:1012E000EBD3F8E7823D000002FCFFFF10B5436935
:1012F00013B1AFF3008001E0FFF754F9012010BDF6
:10130000127800F124010A7000224A700122EDE7F0
:1013100011684FF0FF32E9E710B5436913B1AFF33D
:10132000008001E0FFF7D6F9012010BD128800F11E
:10133000240182840022C2840122EDE711684FF06B
:10134000FF32E9E72DE9F04116460C46054600F06C
:1013500043F8036893F80101012807D0FF2C12D845
:10136000185D80B101202C70BDE8F081D3F8070131
:101370003246214603F20713C7182846BC46BDE88B
:10138000F041002360474FF0FF30EDE7754600F075
:10139000EBF8AE4605006946534620F00700854647
:1013A00018B020B5FEF7DCFFBDE820404FF0000686
:1013B0004FF000074FF000084FF0000BAC46ACE8D0
:1013C000C009ACE8C009ACE8C009ACE8C00921F02C
:1013D00007018D467047000010B500F005F8001DAC
:1013E00010BD00BFF53900000048704730000020F4
:1013F0002DE9F0411F46044603260168072A01F43F
:10140000006004DB08B116A505E016A503E008B1ED
:1014100015A500E015A521F010002060A069C01EF0
:10142000A0610FB1401EA0612046FFF782F84FB1C6
:10143000D4E9012138469047206A401C2062C01C34
:10144000206206E0206AFAE7D4E9012115F8010BD1
:101450009047761EF8D22046FFF781F8BDE8F0816C
:101460004E414E006E616E00494E4600696E660048
:101470002DE9F047814616468AB0354878440DC8B4
:101480008DE80D0032487844801C03AC0DC884E818
:101490000D0041F69B300844372190FBF1F290FBA0
:1014A000F1F5A5F1800501FB12041B3C02D5644255
:1014B000012000E00020DFF898A080460027FA44D1
:1014C000AAF1BE0A0EE0E0070AD03246684607EBF2
:1014D000470101230AEB810103F011FB8DE80700AE
:1014E00064107F1C002CEED1194F7F44AE3F19E0F1
:1014F000E80715D007EB04100DF1180A90E80E006C
:101500008AE80E00C068F04201D19819089032466E
:10151000012306A903A803F0F2FA03AB83E807004E
:101520006D10641C002DE3D14FF001033246694673
:10153000B8F1000F03A802D003F0CCFA01E003F0E9
:10154000DEFAC9E90001C9F808200AB0BDE8F08751
:101550008C3A000010B50446AFF300802046BDE889
:101560001040FEF7E8BE0000004870471000002061
:1015700030B44FF0013C50F8042BCCFA52F451F83F
:10158000043BD51A20D1FCB950F8042BCCFA52F404
:1015900051F8043BD51A17D1B4B950F8042BCCFA42
:1015A00052F451F8043BD51A0ED16CB950F8042B03
:1015B000CCFA52F451F8043BD51A05D1002CDAD0FC
:1015C00030BC4FF00000704729BAB1FA81F111F038
:1015D0001801D1F120008440F2D1CA40CB4012F072
:1015E000FF0213F0FF0330BCD01A704701491820E6
:1015F000ABBEFEE7260002007047000000000000BE
:10160000FFE7FEE700000000704700000000000058
:1016100081B0EFF3108072B60090FFE7FEE70000A4
:1016200090B00F900E9100200D900C900B900A90AE
:101630000D90FFE70D980F2800F2E681FFE70D9966
:10164000012088400C900E9800680C9908400B907F
:101650000B980C99884240F0D281FFE70E984068C1
:1016600000F00300012807D0FFE70E98406800F063
:10167000030002282FD1FFE70F9880680A900D9889
:101680004100032000FA01F10A9888430A900E985D
:10169000C0680D99490000FA01F10A9808430A90C0
:1016A0000A980F9988600F9840680A900D99012058
:1016B00000FA01F10A9888430A900E984068C0F336
:1016C00000100D9900FA01F10A9808430A900A984F
:1016D0000F994860FFE70E98406800F00300032868
:1016E00018D0FFE70F98C0680A900D9841000320BA
:1016F00000FA01F10A9888430A900E9880680D99C3
:10170000490000FA01F10A9808430A900A980F99D3
:10171000C860FFE70E98406800F00300022826D159
:10172000FFE70F980D996FF0030202EA5101084498
:10173000006A0A900D9800F0070081000F2000FA5F
:1017400001F10A9888430A900E9800690D9901F0FA
:101750000701890000FA01F10A9808430A900A98E3
:101760000F990D9B02EA530211440862FFE70F989C
:1017700000680A900D984100032000FA01F10A98D0
:1017800088430A900E98406800F003000D994900C4
:1017900000FA01F10A9808430A900A980F99086024
:1017A0000E9880798007002800F02881FFE7FFE786
:1017B00043F64400C4F20200016841F48041016034
:1017C000006800F4804009900998FFE70D9820F028
:1017D000030043F60801C4F2010140580A900D9835
:1017E00000F0030081000F2000FA01F10A988843FD
:1017F0000A900F980021C4F20201884203D1FFE74A
:10180000002008907AE00F9840F20041C4F20201F3
:10181000884203D1FFE7012007906CE00F9840F663
:101820000001C4F20201884203D1FFE702200690C2
:101830005EE00F9840F60041C4F20201884203D1F5
:10184000FFE70320059050E00F9841F20001C4F239
:101850000201884203D1FFE70420049042E00F9880
:1018600041F20041C4F20201884203D1FFE70520A2
:10187000039034E00F9841F60001C4F2020188425F
:1018800003D1FFE70620029026E00F9841F60041C1
:10189000C4F20201884203D1FFE70720019018E05B
:1018A0000F9842F20001C4F20201884203D1FFE71F
:1018B000082000900AE00F9942F20042C4F20202AE
:1018C0000A20914208BF09200090FFE7009801908C
:1018D000FFE701980290FFE702980390FFE7039863
:1018E0000490FFE704980590FFE705980690FFE74E
:1018F00006980790FFE707980890FFE70898C0B29E
:101900000D9901F00301890000FA01F10A980843DA
:101910000A900A980D9921F0030143F60802C4F2D7
:101920000102885043F60840C4F2010000680A90A2
:101930000B990A9888430A900E988079C00600286F
:1019400005D5FFE70B990A9808430A90FFE70A9824
:1019500043F60841C4F20101086043F60C40C4F2AA
:10196000010000680A900B990A9888430A900E9823
:1019700080798006002805D5FFE70B990A9808436F
:101980000A90FFE70A9843F60C41C4F2010108608F
:1019900043F60440C4F2010000680A900B990A98CB
:1019A00088430A900E9880798007002805D5FFE7C4
:1019B0000B990A9808430A90FFE70A9843F60441F6
:1019C000C4F20101086043F60040C4F2010000685F
:1019D0000A900B990A9888430A900E988079C0075C
:1019E00028B1FFE70B990A9808430A90FFE70A9885
:1019F00043F60041C4F201010860FFE7FFE7FFE79B
:101A00000D9801300D9015E610B0704700000000F1
:101A100041F2F050C2F20000006870470000000080
:101A200040F20400C2F20000027841F2F051C2F22A
:101A300000010868104408607047000000000000C2
:101A400080B5032000F0ECF80F2000F005F800F05E
:101A5000A7F8002080BD000080B582B0009040F261
:101A60000000C2F20000006840F20401C2F200016E
:101A70000A784FF47A71B1FBF2F1B0FBF1F001F0AA
:101A800043FB20B1FFE701208DF8070018E0009824
:101A90000F280DD8FFE700994FF0FF30002200F02B
:101AA000A3F8009840F20801C2F20001086003E0C8
:101AB00001208DF8070003E000208DF80700FFE704
:101AC0009DF8070002B080BD10B581B0009000986D
:101AD00040784EF69851CEF2000108604EF6A051C3
:101AE000CEF20001086820F001000860009840680C
:101AF0004EF69C52CEF200021060DDF800E09EF837
:101B00000C0000079EF80B2040EA02609EF80020BF
:101B10009EF808309EF809C09EF80A4040EAC4408A
:101B20009EF80D4040EA84409EF80E4040EA444052
:101B30009EF80FE040EA0E4040EA0C2040EA4300E5
:101B40001043086001B010BDBFF35F8F4EF6245103
:101B5000CEF20001086820F4803008604EF69451FF
:101B6000CEF2000100200860704700000000000075
:101B700081B00090009840F001004EF69451CEF2F2
:101B8000000108604EF62451CEF20001086840F4CE
:101B900080300860BFF34F8FBFF36F8F01B0704785
:101BA00082B0FFE743F64000C4F20200016841F052
:101BB00080510160006800F0805001900198FFE7BB
:101BC000FFE743F64400C4F20200016841F480419B
:101BD0000160006800F4804000900098FFE702B0C8
:101BE000704700000000000080B586B08DF8170037
:101BF000049103920020029002F06EFA02909DF987
:101C00001700019002980499039A01F061FC0146C3
:101C1000019802F069FA06B080BD000000000000E3
:101C200080B582B00190019802F082FA02B080BDC6
:101C300080B584B000200290FFE743F64000C4F274
:101C40000200016841F080510160006800F080509E
:101C500001900198FFE747F20001C4F20001086813
:101C600040F480300860FFF7D3FE0290FFE747F2B0
:101C70000400C4F20000006800F48030B0F5803F3A
:101C80000DD0FFE7FFF7C4FE0299401AB0F57A7F46
:101C900004D9FFE703208DF80F0028E0E7E747F2BB
:101CA0000001C4F20001086840F400300860FFF74A
:101CB000AFFE0290FFE747F20400C4F200000068A4
:101CC00000F40030B0F5003F0DD0FFE7FFF7A0FEB5
:101CD0000299401AB0F57A7F04D9FFE703208DF806
:101CE0000F0004E0E7E700208DF80F00FFE79DF804
:101CF0000F0004B080BD000082B001908DF8031089
:101D00004EF61051CEF20001086820F00400086081
:101D1000BFF34F8FBFF36F8F9DF80300012802D1EF
:101D2000FFE730BF03E040BF20BF20BFFFE702B0A6
:101D3000704700000000000080B588B006900020C9
:101D40000590049003900290019006980078C007D7
:101D5000B8B1FFE7FFE743F60801C4F202010868E3
:101D600020F4000008600698426B08681043086081
:101D7000FFE70698406B18B9FFE701200290FFE7E4
:101D8000FFE706988078000700281CD5FFE743F698
:101D90008C01C4F20201086820F44010069AD26B4C
:101DA000104308600698C06BB0F5801F03D1FFE7B1
:101DB00001200290FFE70698C06B18B9FFE70120E9
:101DC0000190FFE7FFE706988078C00600281CD541
:101DD000FFE743F68C01C4F20201086820F44000DA
:101DE000069A126C104308600698006CB0F5800FDC
:101DF00003D1FFE701200290FFE70698006C18B9B5
:101E0000FFE701200190FFE7FFE70698C078C007D1
:101E100018B1FFE701200290FFE7069800788006DE
:101E2000002840F1AB80FFE7FFE743F64000C4F233
:101E30000200016841F080510160006800F08050AC
:101E400000900098FFE747F20001C4F20001086823
:101E500040F480700860FFF7DBFD0590FFE747F274
:101E60000000C4F200000068C00500280CD4FFE7A1
:101E7000FFF7CEFD0599401A652804D3FFE703203C
:101E80008DF81F00C6E3EAE743F67000C4F20200D3
:101E9000006800F440700490049800283ED0FFE7EA
:101EA00004980699096B01F44071884236D0FFE727
:101EB00043F67000C4F20200016821F440710491FD
:101EC000016841F480310160016821F480310160D2
:101ED000049901600068C007F8B1FFE7FFF798FDBB
:101EE0000590FFE743F67000C4F20200006800F0BE
:101EF00002010020B0EB510F0ED1FFE7FFF788FD84
:101F00000599401A41F28931884204D3FFE7032042
:101F10008DF81F007EE3E5E7FFE7FFE7FFE70698A0
:101F2000006B00F44070B0F5407F11D1FFE743F63D
:101F30000801C4F20201086820F4F810069A126B36
:101F40004FF6FF43C0F6FF731A401043086008E0E5
:101F500043F60801C4F20201086820F4F810086092
:101F6000FFE70698026B6FF31F3243F67001C4F26D
:101F70000201086810430860FFE7FFE70698007851
:101F8000C006002810D5FFE7FFE743F68C01C4F236
:101F90000201086820F0807008600698826B08686B
:101FA00010430860FFE7FFE70698407840060028E6
:101FB0000CD5FFE743F69001C4F20201086820F453
:101FC0004030069A526E10430860FFE7069840784A
:101FD000000600280CD5FFE743F69001C4F2020189
:101FE000086820F44020069A926E10430860FFE7CC
:101FF00006988078C00760B1FFE743F69001C4F20D
:102000000201086820F44010069AD26E104308605E
:10201000FFE706988078800700280CD5FFE743F695
:102020009001C4F20201086820F44000069A126F81
:1020300010430860FFE706980078400600280CD59A
:10204000FFE743F69001C4F20201086820F00300A4
:10205000069A526C10430860FFE706980078000665
:1020600000280CD5FFE743F69001C4F2020108688E
:1020700020F00C00069A926C10430860FFE7069867
:102080004078C00760B1FFE743F69001C4F2020157
:10209000086820F03000069AD26C10430860FFE711
:1020A00006984078800700280CD5FFE743F690019A
:1020B000C4F20201086820F0C000069A126D1043B5
:1020C0000860FFE706984078400700280CD5FFE736
:1020D00043F69001C4F20201086820F44070069AA9
:1020E000526D10430860FFE706984078000700280B
:1020F0000CD5FFE743F69001C4F20201086820F412
:102100004060069A926D10430860FFE70698407899
:10211000C00600280CD5FFE743F69001C4F2020187
:10212000086820F44050069AD26D10430860FFE71B
:1021300006984078800600280CD5FFE743F690010A
:10214000C4F20201086820F44040069A126E10435F
:102150000860FFE706988078400600280CD5FFE766
:1021600043F69001C4F20201086820F08060069AEC
:10217000926F10430860FFE7069880788006002879
:1021800015D5FFE743F69001C4F20201086820F07C
:102190000060069AD26F104308600698C06FB0F1D5
:1021A000006F03D1FFE701200190FFE7FFE70698EA
:1021B00000780007002803D5FFE701200190FFE722
:1021C00006988078400700280CD5FFE743F6900179
:1021D000C4F20201086820F04070069A526F104362
:1021E0000860FFE706988078000600280DD5FFE715
:1021F00043F69001C4F20201086820F08050069A6C
:10220000D2F8802010430860FFE70698C0784007A6
:1022100000280DD5FFE743F69001C4F202010868DB
:1022200020F00050069AD2F8842010430860FFE79F
:102230000698C078000700280DD5FFE743F68C010B
:10224000C4F20201086820F00070069AD2F88820D3
:1022500010430860FFE70698C078C00600280DD537
:10226000FFE743F68C01C4F20201086820F08060A9
:10227000069AD2F88C2010430860FFE702980128E4
:1022800007D0FFE70698C0788007002840F1E28079
:10229000FFE743F60001C4F20201086820F0806005
:1022A0000860FFF7B5FB0590FFE743F60000C4F2B6
:1022B0000200006800F000610020B0EBD16F0CD08C
:1022C000FFE7FFF7A5FB0599401A652804D3FFE750
:1022D00003208DF81F009DE1E7E706980078C0070E
:1022E000F0B1FFE70698406BD0B9FFE743F68401F1
:1022F000C4F202010868C0F3014004900868C0F30A
:1023000003600390069A506892688001049B40EA3B
:102310000340039B40EA036040EA02700860FFE765
:10232000069880780007002806D5FFE70698C06B5E
:10233000B0F5801F0CD0FFE706988078C006002813
:102340002CD5FFE70698006CB0F5800F26D1FFE78B
:1023500043F68401C4F202010868C0F3014004900E
:102360000868C0F302700390069A5068D268800132
:10237000049B40EA034040EA0260039A40EA02708C
:10238000086043F68C01C4F20201086820F01F00C7
:10239000069A526A013A10430860FFE70698C0782F
:1023A000C007D0B1FFE743F68401C4F20201086818
:1023B000C0F3036004900868C0F302700390069AAB
:1023C00050681269800140EA0240049A40EA0260C3
:1023D000039A40EA02700860FFE70698C078800719
:1023E000002812D5FFE7069B58689968DA681B69D0
:1023F000800140EA034040EA026040EA017043F68F
:102400008401C4F202010860FFE743F60001C4F250
:102410000201086840F080600860FFF7F9FA059053
:10242000FFE743F60000C4F20200006800F000611C
:102430000020B0EBD16F0CD1FFE7FFF7E9FA059967
:10244000401A652804D3FFE703208DF81F00E1E060
:10245000E7E7FFE70198012840F0D880FFE743F65F
:102460000001C4F20201086820F080500860FFF704
:10247000CFFA0590FFE743F60000C4F202000068BF
:1024800000F000510020B0EB517F0CD0FFE7FFF7C8
:10249000BFFA0599401A652804D3FFE703208DF899
:1024A0001F00B7E0E7E7069880780007002804D50A
:1024B000FFE70698C06B50B1FFE706988078C0062A
:1024C00000282DD5FFE70698006C48BBFFE743F6D0
:1024D0008801C4F202010868C0F301400490086852
:1024E000C0F302700390069A506992698001049BC0
:1024F00040EA034040EA0260039A40EA0270086042
:1025000043F68C01C4F20201086820F4F850069AE0
:10251000936A6FF0FF0202EB032210430860FFE7AB
:10252000069880788006002820D5FFE70698C06FBF
:10253000B0F1006F1AD1FFE743F68801C4F202013F
:102540000868C0F3036004900868C0F30270039049
:10255000069A5069126A800140EA0240049A40EAF1
:102560000260039A40EA02700860FFE7069800786C
:102570000007002825D5FFE743F68801C4F20201D1
:102580000868C0F3036004900868C0F3014003903A
:10259000069A5069D2698001039B40EA0340049B7C
:1025A00040EA036040EA0270086043F68C01C4F21E
:1025B0000201086820F44030069AD26A104308608D
:1025C000FFE743F60001C4F20201086840F08050C2
:1025D0000860FFF71DFA0590FFE743F60000C4F21C
:1025E0000200006800F000510020B0EB517F0CD1D8
:1025F000FFE7FFF70DFA0599401A652804D3FFE7B6
:1026000003208DF81F0005E0E7E7FFE700208DF8C5
:102610001F00FFE79DF81F0008B080BD000000000C
:1026200080B584B00290019100200090029820B9FA
:10263000FFE701208DF80F0024E1019843F60041E7
:10264000C4F20201096801F00F01884216D9FFE7C0
:1026500043F60040C4F20200016821F00F01019A24
:1026600011430160006800F00F000199884204D016
:10267000FFE701208DF80F0004E1FFE702980078E2
:10268000800700282AD5FFE7029800784007002835
:1026900009D5FFE743F60801C4F20201086840F4D7
:1026A000E0500860FFE7029800780007002809D58D
:1026B000FFE743F60801C4F20201086840F46040F5
:1026C0000860FFE743F60801C4F20201086820F041
:1026D000F000029A926810430860FFE702980078C1
:1026E000C007002869D0FFE702984068012811D18F
:1026F000FFE743F60000C4F20200006800F4003176
:102700000020B0EB514F04D1FFE701208DF80F00FE
:10271000B8E027E002984068022811D1FFE743F6AD
:102720000000C4F20200006800F000710020B0EB6D
:10273000516F04D1FFE701208DF80F00A2E010E0F7
:1027400043F60000C4F20200006800F0020100201D
:10275000B0EB510F04D1FFE701208DF80F0091E09D
:10276000FFE7FFE743F60801C4F20201086820F022
:102770000300029A526810430860FFF749F900907D
:10278000FFE743F60800C4F20200006800F00C0006
:1027900002994968B0EB810F0ED0FFE7FFF738F9D7
:1027A0000099401A41F28931884204D3FFE703209F
:1027B0008DF80F0066E0E4E7FFE7019843F600417B
:1027C000C4F20201096801F00F01884216D2FFE746
:1027D00043F60040C4F20200016821F00F01019AA3
:1027E00011430160006800F00F000199884204D095
:1027F000FFE701208DF80F0044E0FFE70298007822
:10280000400700280CD5FFE743F60801C4F2020197
:10281000086820F4E050029AD26810430860FFE78D
:1028200002980078000700280DD5FFE743F608015D
:10283000C4F20201086820F46040029A126940EA7A
:10284000C2000860FFE700F053F843F60801C4F245
:1028500002010968C9B20A0944F62471C0F60001F0
:10286000895CC84040F20001C2F20001086040F2F9
:102870000800C2F200000068FFF7EEF800208DF8B3
:102880000F00FFE79DF80F0004B080BD00000000BE
:1028900040F20000C2F20000006870470000000033
:1028A00080B5FFF7F5FF43F60801C4F2020109689D
:1028B000C1F3822244F63471C0F60001895CC8403D
:1028C00080BD00000000000080B5FFF7E1FF43F687
:1028D0000801C4F20201096889B24A0B44F6347156
:1028E000C0F60001895CC84080BD00000000000007
:1028F00080B586B00020059004900390029043F6C6
:102900000800C4F20200006800F00C0001460191CA
:1029100040B1FFE7019804280AD0FFE70198082892
:102920000CD04FE042F20040C0F2F40002904FE0C1
:1029300047F64000C0F27D10029049E043F60400E3
:10294000C4F20200016801F03F01059100684002F5
:10295000002813D5FFE743F60400C4F20200006824
:10296000C0F3881047F64001C0F27D11A0FB0101C1
:10297000059A0023FDF706FD049012E043F60400DB
:10298000C4F202000068C0F3881042F20041C0F2B5
:10299000F401A0FB0101059A0023FDF7F3FC04906C
:1029A000FFE743F60400C4F20200006800F440317F
:1029B000022000EBD130039004980399B0FBF1F0B2
:1029C000029005E042F20040C0F2F4000290FFE7FE
:1029D000029806B080BD000080B586B0049000204B
:1029E0008DF80700049820B9FFE701208DF8170043
:1029F00084E304980078C007002800F0B780FFE760
:102A000043F60800C4F20200006800F00C0004283D
:102A100013D0FFE743F60800C4F20200006800F09C
:102A20000C0008281ED1FFE743F60400C4F20200A0
:102A300000684002002815D5FFE743F60000C4F205
:102A40000200006800F400310020B0EB514F08D0C4
:102A5000FFE70498406820B9FFE701208DF81700D0
:102A60004CE382E0FFE704984068B0F5803F09D16D
:102A7000FFE743F60001C4F20201086840F4803029
:102A8000086032E00498406868B9FFE743F6000147
:102A9000C4F20201086820F480300860086820F45D
:102AA0008020086020E004984068B0F5A02F0DD188
:102AB000FFE743F60001C4F20201086840F48020F9
:102AC0000860086840F4803008600CE043F60001BC
:102AD000C4F20201086820F480300860086820F41D
:102AE00080200860FFE7FFE7FFE7FFE70498406802
:102AF000E8B1FFE7FEF78CFF0390FFE743F6000025
:102B0000C4F20200006800F400310020B0EB514F25
:102B10000CD1FFE7FEF77CFF0399401A652804D328
:102B2000FFE703208DF81700E8E2E7E71CE0FEF777
:102B30006FFF0390FFE743F60000C4F20200006855
:102B400000F400310020B0EB514F0CD0FFE7FEF74E
:102B50005FFF0399401A652804D3FFE703208DF82F
:102B60001700CBE2E7E7FFE7FFE7FFE7049800780D
:102B70008007002840F19C80FFE743F60800C4F27C
:102B80000200006810F00C0F13D0FFE743F60800B6
:102B9000C4F20200006800F00C0008282CD1FFE706
:102BA00043F60400C4F2020000684002002823D467
:102BB000FFE743F60000C4F20200006800F00201E3
:102BC0000020B0EB510F09D0FFE70498C06801283E
:102BD00004D0FFE701208DF817008FE243F60001D3
:102BE000C4F20201086820F0F800049A126940EA71
:102BF000C2000860FFE75AE00498C06888B3FFE7A6
:102C000043F60001C4F20201086840F001000860C8
:102C1000FEF7FEFE0390FFE743F60000C4F2020059
:102C2000006800F002010020B0EB510F0CD1FFE76B
:102C3000FEF7EEFE0399401A032804D3FFE70320B2
:102C40008DF817005AE2E7E743F60001C4F20201EB
:102C5000086820F0F800049A126940EAC20008608F
:102C600024E043F60001C4F20201086820F00100EC
:102C70000860FEF7CDFE0390FFE743F60000C4F2C4
:102C80000200006800F002010020B0EB510F0CD0F0
:102C9000FFE7FEF7BDFE0399401A032804D3FFE7C0
:102CA00003208DF8170029E2E7E7FFE7FFE7FFE7DA
:102CB00004980078000700284FD5FFE70498406982
:102CC00028B3FFE743F67401C4F20201086840F03C
:102CD00001000860FEF79CFE0390FFE743F67400D6
:102CE000C4F20200006800F002010020B0EB510FB6
:102CF0000CD1FFE7FEF78CFE0399401A032804D39A
:102D0000FFE703208DF81700F8E1E7E724E043F63A
:102D10007401C4F20201086820F001000860FEF7A7
:102D200077FE0390FFE743F67400C4F202000068E8
:102D300000F002010020B0EB510F0CD0FFE7FEF7CE
:102D400067FE0399401A032804D3FFE703208DF898
:102D50001700D3E1E7E7FFE7FFE7049800784007B3
:102D6000002840F1DB80FFE743F64000C4F2020098
:102D70000068C000002813D4FFE7FFE743F64000D7
:102D8000C4F20200016841F080510160006800F067
:102D9000805000900098FFE701208DF80700FFE7C2
:102DA00047F20000C4F200000068C005002822D4E9
:102DB000FFE747F20001C4F20001086840F48070A8
:102DC0000860FEF725FE0390FFE747F20000C4F21B
:102DD00000000068C00500280CD4FFE7FEF718FECD
:102DE0000399401A652804D3FFE703208DF81700E4
:102DF00084E1EAE7FFE7FFE704988068012809D14A
:102E0000FFE743F67001C4F20201086840F00100D8
:102E1000086031E00498806868B9FFE743F6700104
:102E2000C4F20201086820F001000860086820F080
:102E3000040008601FE00498806805280DD1FFE7B2
:102E400043F67001C4F20201086840F00400086013
:102E5000086840F0010008600CE043F67001C4F21D
:102E60000201086820F001000860086820F00400F2
:102E70000860FFE7FFE7FFE7FFE704988068F8B125
:102E8000FFE7FEF7C5FD0390FFE743F67000C4F2CD
:102E90000200006800F002010020B0EB510F0ED1DB
:102EA000FFE7FEF7B5FD0399401A41F289318842E8
:102EB00004D3FFE703208DF817001FE1E5E71EE0CC
:102EC000FEF7A6FD0390FFE743F67000C4F2020090
:102ED000006800F002010020B0EB510F0ED0FFE7B8
:102EE000FEF796FD0399401A41F28931884204D3D6
:102EF000FFE703208DF8170000E1E5E7FFE79DF805
:102F00000700012809D1FFE743F64001C4F202019E
:102F1000086820F080500860FFE7FFE704988069A8
:102F2000002800F0E780FFE743F60800C4F2020043
:102F3000006800F00C00082800F09180FFE704987A
:102F40008069022865D1FFE743F60001C4F202015F
:102F5000086820F080700860FEF75AFD0390FFE7D4
:102F600043F60000C4F20200006800F00071002087
:102F7000B0EB516F0CD0FFE7FEF74AFD0399401A02
:102F8000032804D3FFE703208DF81700B6E0E7E736
:102F90000499C869D1F820C04B6A8A6A40EA0C00DB
:102FA00040EA8310D2034FF6FF739A43A2F58032B2
:102FB0001043CA6A40EA0260096B40EA017043F6B6
:102FC0000401C4F20201086043F60001C4F20201E8
:102FD000086840F080700860FEF71AFD0390FFE774
:102FE00043F60000C4F20200006800F00071002007
:102FF000B0EB516F0CD1FFE7FEF70AFD0399401AC1
:10300000032804D3FFE703208DF8170076E0E7E7F5
:1030100024E043F60001C4F20201086820F0807049
:103020000860FEF7F5FC0390FFE743F60000C4F2EA
:103030000200006800F000710020B0EB516F0CD06E
:10304000FFE7FEF7E5FC0399401A032804D3FFE7E6
:1030500003208DF8170051E0E7E7FFE749E043F66A
:103060000400C4F2020000680290049880690128FC
:103070003AD0FFE7029800F480000499C9698842B9
:1030800032D1FFE7029800F03F000499096A8842B4
:103090002AD1FFE7029847F6C07108400499496AAF
:1030A000B0EB811F20D1FFE7029800F44030049973
:1030B000896AC9034FF6FF729143A1F580318842B6
:1030C00012D1FFE7029800F070600499C96AB0EB72
:1030D000016F09D1FFE7029800F0E0400499096B05
:1030E000B0EB017F04D0FFE701208DF8170005E069
:1030F000FFE7FFE700208DF81700FFE79DF81700B6
:1031000006B080BD0000000080B582B0019001983B
:1031100000F036FA02B080BD80B582B00090009811
:1031200020B9FFE701208DF8070044E0009880698E
:1031300008B1FFE700E0FFE70098C06F40B9FFE784
:103140000099002081F87800009800F039F8FFE736
:1031500000992420C86700980168086820F00100E1
:1031600008600098406A20B1FFE7009800F0F4FA88
:10317000FFE7009800F084FC012804D1FFE701205C
:103180008DF8070017E000980168486820F4904027
:10319000486000980168886820F02A0088600098DC
:1031A0000168086840F001000860009800F078FBB2
:1031B0008DF80700FFE79DF8070002B080BD000012
:1031C00080B5B2B03190002030902F902E902D908D
:1031D0002C9008A89021FDF782F93198006841F2FF
:1031E0000001C4F20101884256D1FFE74020089057
:1031F0000020199008A8FEF79FFD18B1FFE7FEF721
:1032000007FAFFE7FFE743F64400C4F20200016853
:1032100041F010010160006800F01000079007986D
:10322000FFE7FFE743F63000C4F20200016841F017
:1032300002010160006800F0020006900698FFE7B6
:103240004FF480402C90022001902D9000202E9071
:10325000032002902F9004200390309040F2004011
:10326000C4F2020004902CA90591FEF7D9F9DDF80B
:1032700004C0029B039A049805994FF4004ECDF8C0
:10328000B0E0CDF8B4C04FF0010CCDF8B8C02F932A
:103290003092FEF7C5F9FFE732B080BD00000000B4
:1032A00080B58AB008900791ADF81A200593089868
:1032B000C06F202840F08380FFE7079820B1FFE728
:1032C000BDF81A0020B9FFE701208DF827007AE049
:1032D00008990020C1F8840008992120C867FEF7EA
:1032E00097FB0290BDF81A000899A1F85000BDF8AC
:1032F0001A000899A1F8520008988068B0F5805F1C
:1033000009D1FFE70898006928B9FFE70020049079
:103310000798039004E00798049000200390FFE7CB
:10332000FFE70898B0F8520080B3FFE70898029BC7
:1033300005996A4611608021002200F041FE38B1F3
:10334000FFE708992020C86703208DF827003AE09E
:10335000049858B9FFE7039800886FF35F20089935
:103360000968886203980230039008E004980078A6
:10337000089909688862049801300490FFE7089969
:10338000B1F852000138A1F85200CAE70898029B30
:1033900005996A4611604021002200F011FE38B103
:1033A000FFE708992020C86703208DF827000AE06E
:1033B00008992020C86700208DF8270003E002202C
:1033C0008DF82700FFE79DF827000AB080BD0000B8
:1033D000FFE7FEE70000000080B586B00020019006
:1033E0000590049003900290FEF7AEFB0198012136
:1033F0008DF808108DF8090003901F228DF8102019
:1034000087228DF811208DF812008DF813008DF8A9
:1034100014108DF815108DF816008DF8170002A8FD
:10342000FEF752FB0420FEF7A3FB06B080BD0000B0
:1034300082B0FFE743F63000C4F20200016841F0B9
:1034400080010160006800F0800001900198FFE7B2
:10345000FFE743F63000C4F20200016841F00201C8
:103460000160006800F0020000900098FFE702B0E1
:10347000704700000000000080B582B040F2740088
:10348000C2F20000019041F20001C4F201010160AA
:103490004FF4E131416000218160C16001610C2283
:1034A00042618161C16101624162FFF735FE18B17D
:1034B000FFE7FEF7ADF8FFE702B080BD00000000B7
:1034C000FFE7FEE700000000FFE7FEE70000000066
:1034D00088B0079006910592079800F007000490C5
:1034E0000498C0F10700052803D3FFE704200190EA
:1034F00004E00498C0F107000190FFE701980390F1
:1035000004980430062803D8FFE70020009003E069
:10351000049803380090FFE70098029006980399FA
:10352000012202FA01F101390840029B98400599F5
:103530009A40013A1140084308B07047000000006B
:10354000EFF3098020E9F00F08490A68106000F0E5
:1035500087FE6FF0020E05490A681068B0E8F00FA8
:1035600080F30988BFF36F8F7047704770000020A9
:103570004FF0020181F31488BFF36F8F7047000092
:1035800080B582B0009000980138B0F1807F03D3FD
:10359000FFE70120019019E0009801384EF2140174
:1035A000CEF2000108604FF0FF300F2100F09CFDCB
:1035B0004EF21801CEF20001002008604EF2100217
:1035C000CEF20002072111600190FFE7019802B0DE
:1035D00080BD00000000000080B582B00020019096
:1035E000FFE7019840F2FC01C2F20001096888423D
:1035F0001EDAFFE7019800EB400140F20010C2F232
:10360000000000EBC10000900098406958B1FFE74E
:10361000009948690138486120B9FFE70099002006
:103620000871FFE7FFE7FFE7019801300190D8E755
:1036300040F27000C2F2000000680079012814D145
:10364000FFE740F27000C2F20000016888680138AC
:10365000886048B9FFE74EF60451CEF200010868D1
:1036600040F080500860FFE7FFE7FEF7D9F902B0AD
:1036700080BD00000000000080B594B007A8342190
:10368000FCF72DFF00200690059004900390029017
:10369000FFE743F64000C4F20200016841F08051A8
:1036A0000160006800F0805001900198FFE7FFE79B
:1036B00047F20000C4F20000016841F4404101609B
:1036C000006800F4404000900098FFE70120079058
:1036D0004FF48030089002200D904FF480010E913D
:1036E00019210F914FF4D8711091119012901390ED
:1036F00007A8FFF771F918B1FFE7FDF789FFFFE7AA
:10370000FEF796FA18B1FFE7FDF782FFFFE70F20FB
:10371000029002200390002004904FF4A0500590E6
:103720004FF48050069002A80721FEF779FF18B1E8
:10373000FFE7FDF76DFFFFE714B080BD000000005C
:103740004EF68851CEF20001086840F4700008601F
:10375000704700000000000081B00090009890F8D1
:103760002400000700280BD5FFE700980068406898
:1037700020F40040009A1168526B10434860FFE744
:10378000009890F82400C00758B1FFE7009800683F
:10379000406820F40030009A1168926A1043486033
:1037A000FFE7009890F82400800700280BD5FFE77A
:1037B00000980068406820F48030009A1168D26A4E
:1037C00010434860FFE7009890F824004007002865
:1037D0000BD5FFE700980068406820F48020009A2D
:1037E0001168126B10434860FFE7009890F82400BE
:1037F000C00600280BD5FFE700980068806820F419
:103800008050009A1168926B10438860FFE700981F
:1038100090F82400800600280BD5FFE70098006888
:10382000806820F40050009A1168D26B10438860C1
:10383000FFE7009890F82400400600281CD5FFE719
:1038400000980068406820F48010009A1168126C9B
:10385000104348600098006CB0F5801F0BD1FFE763
:1038600000980068406820F4C000009A1168526C0B
:1038700010434860FFE7FFE7009890F82400000637
:1038800000280BD5FFE700980068406820F400206E
:10389000009A1168926C10434860FFE701B07047CE
:1038A00080B588B0069006990020C1F88400FEF724
:1038B000AFF80590069800680068000700282ED52C
:1038C000FFE70698059B6A466FF07E4111604FF452
:1038D0000011002200F074FB00B3FFE7FFE7FFE7F1
:1038E0000698006850E8000F20F080000490FFE781
:1038F00004990698026842E800100028F0D1FFE71A
:10390000FFE706992020C867FFE70699002081F8A5
:103910007800FFE703208DF81F005EE0FFE70698C0
:10392000006800684007002842D5FFE70698059B1D
:103930006A466FF07E4111604FF48001002200F072
:103940003FFBA0B3FFE7FFE7FFE70698006850E8FA
:10395000000F20F490700390FFE703990698026827
:1039600042E800100028F0D1FFE7FFE7FFE7FFE79C
:103970000698006850E8020F20F001000290FFE76F
:1039800002990698026842E802100028F0D1FFE789
:10399000FFE706992020C1F88000FFE70699002084
:1039A00081F87800FFE703208DF81F0015E0FFE79E
:1039B00006992020C8670699C1F880000699002062
:1039C000086606994866FFE70699002081F87800A6
:1039D000FFE700208DF81F00FFE79DF81F0008B0EB
:1039E00080BD00000000000084B00390FFE7FFE707
:1039F0000398006850E8000F20F490700290FFE7F1
:103A000002990398026842E800100028F0D1FFE70D
:103A1000FFE7FFE7FFE70398006850E8020F20F098
:103A200001000190FFE701990398026842E8021043
:103A30000028F0D1FFE7FFE70398006E012814D1BA
:103A4000FFE7FFE7FFE70398006850E8000F20F06A
:103A500010000090FFE700990398026842E8001008
:103A60000028F0D1FFE7FFE7FFE703992020C1F826
:103A700080000399002008660399886604B07047A7
:103A800080B590B00F9000208DF82F000F998868B6
:103A90000B694A69C9691843104308430E900F988F
:103AA0000068006846F6F311CEF6FF7108400E99E3
:103AB00008430F99096808600F980068406820F46F
:103AC00040500F9A1168D268104348600F9880697F
:103AD0000E900F98016A0E9808430E900F98006898
:103AE000806820F430600E9908430F990968886057
:103AF000FFE70F98006841F20001C4F2010188421B
:103B000025D1FFE743F69000C4F20200006800F000
:103B1000030001460991032814D80999DFE801F050
:103B2000020A060E01208DF835000FE002208DF804
:103B300035000BE004208DF8350007E008208DF8F3
:103B4000350003E010208DF83500FFE787E10F987E
:103B5000006844F20041C4F2000188422AD1FFE724
:103B600043F69000C4F20200006800F00C00014629
:103B700008910C2819D80899DFE801F007171717E2
:103B80000F1717170B171717130000208DF83500A4
:103B90000FE002208DF835000BE004208DF8350091
:103BA00007E008208DF8350003E010208DF835007F
:103BB000FFE753E10F98006844F60001C4F20001EA
:103BC00088422CD1FFE743F69000C4F2020000685F
:103BD00000F030000146079160B1FFE70798102818
:103BE00010D0FFE70798202808D0FFE70798302873
:103BF0000CD00FE000208DF835000FE002208DF88A
:103C000035000BE004208DF8350007E008208DF822
:103C1000350003E010208DF83500FFE71DE10F9817
:103C2000006844F60041C4F2000188422CD1FFE74D
:103C300043F69000C4F20200006800F0C0000146A4
:103C4000069160B1FFE70698402810D0FFE706987C
:103C5000802808D0FFE70698C0280CD00FE000208D
:103C60008DF835000FE002208DF835000BE00420C0
:103C70008DF8350007E008208DF8350003E01020AE
:103C80008DF83500FFE7E7E00F98006845F2000186
:103C9000C4F2000188422FD1FFE743F69000C4F23E
:103CA0000200006800F440700146059178B1FFE71A
:103CB0000598B0F5807F12D0FFE70598B0F5007F3A
:103CC00009D0FFE70598B0F5407F0CD00FE0002049
:103CD0008DF835000FE002208DF835000BE0042050
:103CE0008DF8350007E008208DF8350003E010203E
:103CF0008DF83500FFE7AEE00F98006841F2004113
:103D0000C4F2010188422FD1FFE743F69000C4F2CC
:103D10000200006800F440600146049178B1FFE7BA
:103D20000498B0F5806F12D0FFE70498B0F5006FEB
:103D300009D0FFE70498B0F5406F0CD00FE00120E8
:103D40008DF835000FE002208DF835000BE00420DF
:103D50008DF8350007E008208DF8350003E01020CD
:103D60008DF83500FFE775E00F98006847F6000111
:103D7000C4F2000188422FD1FFE743F69000C4F25D
:103D80000200006800F440500146039178B1FFE75B
:103D90000398B0F5805F12D0FFE70398B0F5005F9D
:103DA00009D0FFE70398B0F5405F0CD00FE000208A
:103DB0008DF835000FE002208DF835000BE004206F
:103DC0008DF8350007E008208DF8350003E010205D
:103DD0008DF83500FFE73CE00F98006847F600419A
:103DE000C4F2000188422FD1FFE743F69000C4F2ED
:103DF0000200006800F440400146029178B1FFE7FC
:103E00000298B0F5804F12D0FFE70298B0F5004F4E
:103E100009D0FFE70298B0F5404F0CD00FE000202A
:103E20008DF835000FE002208DF835000BE00420FE
:103E30008DF8350007E008208DF8350003E01020EC
:103E40008DF83500FFE703E010208DF83500FFE71F
:103E5000FFE7FFE7FFE7FFE7FFE7FFE7FFE7FFE732
:103E60000F98C069B0F5004F58D1FFE79DF83500B5
:103E70000146019108281DD80199DFE801F00509E4
:103E80000D1B131B1B1B1700FEF70AFD0A9017E002
:103E9000FEF71AFD0A9013E042F20040C0F2F4006F
:103EA0000A900DE0FEF724FD0A9009E04FF400406F
:103EB0000A9005E000200A9001208DF82F00FFE70E
:103EC0000A9850B3FFE70A9840000F99496800EB41
:103ED0005100B0FBF1F00C900C98102818D3FFE7BC
:103EE000BDF83200A0B9FFE70C9820F00F00ADF844
:103EF00036000C9800F00E01BDF8360040EA510083
:103F0000ADF83600BDF836000F990968C86003E0C7
:103F100001208DF82F00FFE7FFE748E09DF835000E
:103F20000146009108281DD80099DFE801F0050935
:103F30000D1B131B1B1B1700FEF7B2FC0A9017E0AA
:103F4000FEF7C2FC0A9013E042F20040C0F2F40017
:103F50000A900DE0FEF7CCFC0A9009E04FF4004017
:103F60000A9005E000200A9001208DF82F00FFE75D
:103F70000A98D8B1FFE70A980F99496800EB5100F9
:103F8000B0FBF1F00C900C9810280AD3FFE7BDF8B5
:103F9000320030B9FFE7BDF830000F990968C860FA
:103FA00003E001208DF82F00FFE7FFE7FFE70F99FF
:103FB000002088660F99C8669DF82F0010B080BD5C
:103FC00080B586B0DDF820C0049003918DF80B20F9
:103FD0000193FFE704980068C06903990840401AFC
:103FE000B0FA80F040099DF80B10884266D1FFE7D7
:103FF00008980130002860D0FFE7FDF709FD01991E
:10400000401A0899884203D8FFE7089820B9FFE7CB
:1040100003208DF8170055E00498006800684007F9
:10402000002849D5FFE70398802845D0FFE703988B
:10403000402841D0FFE704980068C06900F00801FB
:104040000120B0EBD10F16D1FFE7049801680820DA
:10405000009008620498FFF7C7FC00980499C1F823
:104060008400FFE70499002081F87800FFE7012031
:104070008DF8170026E004980068C06900F400611C
:104080000120B0EBD12F16D1FFE7049801684FF45F
:10409000006008620498FFF7A7FC04992020C1F88B
:1040A0008400FFE70499002081F87800FFE70320EF
:1040B0008DF8170006E0FFE7FFE78BE700208DF89B
:1040C0001700FFE79DF8170006B080BD0000000054
:1040D000FFE7FEE7000000004EF60C50CEF20000B5
:1040E0000068C0F30220704782B08DF8070000918D
:1040F0009DF9070000280AD4FFE7009800019DF908
:1041000007104EF20042CEF2000288540BE00098F5
:1041100000019DF8071001F00F014EF61452CEF287
:1041200000028854FFE702B0704700000000000062
:1041300083B00290029800F0070000904EF60C51F8
:10414000CEF200010868019001984FF6FF0210407E
:1041500001900198009A40EA02200022C0F2FA522F
:10416000104301900198086003B070470000000000
:1041700080B5FFE700200121FDF7BEFDFAE7000052
:1041800080B582B000200190FFF726F9FDF758FCBA
:10419000FFF772FAFFF74CF9FFF76EF900F018F825
:1041A00044F2E130C0F6000002214FF4FA720092AE
:1041B00000F07AF9009A44F22940C0F6000001218B
:1041C00000F072F900F028F8FFE7FEE700000000B9
:1041D00080B582B040F2FC00C2F2000000210191E3
:1041E000016040F27000C2F20000016044F2711000
:1041F000C0F600004FF4FA7200F056F9019A6FF021
:1042000001000421FDF7F0FC019A4FF0FF3003217B
:10421000FDF7EAFC02B080BD80B582B040F2FC0040
:10422000C2F20000006808B9FFE714E040F2700035
:10423000C2F20000019040F20011C2F200010160E0
:1042400001680120087100F00BF80198006800680F
:1042500000F0BEF8FFE702B080BD000000000000E3
:1042600084B00020039040F27001C2F2000109689E
:1042700049798DF80B10019040F2FC00C2F2000069
:10428000006808B9FFE79EE000200090FFE7009873
:1042900040F2FC01C2F200010968884256DAFFE7E9
:1042A000009800EB400140F20010C2F2000000EB69
:1042B000C1000079002844D1FFE7009800EB4001DD
:1042C00040F20010C2F2000000EBC1000069039947
:1042D000884229DBFFE7009800EB400140F2001024
:1042E000C2F2000000EBC10040799DF80B1088423B
:1042F0001ADBFFE7009800EB400140F20010C2F229
:10430000000000EBC10109690391009901EB410133
:1043100000EBC10149798DF80B10009901EB4101C7
:1043200000EBC1000190FFE7009800EB400140F274
:104330000010C2F2000000EBC10108690130086101
:10434000FFE7FFE7009801300090A0E70198B8B9B7
:10435000FFE740F27000C2F2000000680079012817
:1043600007D1FFE740F27000C2F200000068019040
:1043700005E040F20010C2F200000190FFE7FFE705
:1043800040F27000C2F2000000680079012808D1F4
:10439000FFE740F27000C2F20000016800200871DF
:1043A000FFE740F27001C2F200010A6800201061CC
:1043B000019B01221A71019A1061019AD0689060E4
:1043C00001980860FFE704B070470000000000009B
:1043D000B0E8F00F80F3098800DF00000000000063
:1043E00080B590B000200F90FFE70F9801300F903C
:1043F0000F9A44F63C71C0F600010DF10A000190DD
:10440000FCF738F80198FCF74BF8019982B240F2BA
:104410007400C2F200004FF0FF33FEF741FF41F29B
:10442000883000F025F8E0E780B590B000200F90CC
:10443000FFE70F9801300F900F9A44F65F71C0F6B6
:1044400000010DF10A000190FCF714F80198FCF747
:1044500027F8019982B240F27400C2F200004FF0D6
:10446000FF33FEF71DFF41F2883000F001F8E0E76E
:1044700082B00090EFF3108072B60190009940F284
:104480007000C2F2000002685161016802200871E8
:1044900062B64EF60451CEF20001086840F080503A
:1044A000086002B07047000086B005908DF81310C8
:1044B000039240F2FC00C2F2000000680A2801DB0F
:1044C000FFE788E040F2FC00C2F20000016840F221
:1044D000F010C2F2000000EB412000F5FE700290E7
:1044E0000299081F02904FF080700860059840F014
:1044F000010002990A1F029208600299081F0290A7
:104500006FF0020008600299081F02900020086006
:1045100002990A1F0292086002990A1F029208601B
:1045200002990A1F0292086002990A1F029208600B
:104530000190FFE7019807280ADCFFE70299081FAE
:10454000029000200860FFE7019801300190F1E738
:104550000298043040F2FC01C2F2000100910A68A6
:1045600002EB420340F20012C2F2000242F83300B2
:10457000086800EB400002EBC003002018710B68D4
:1045800003EB430302EBC30318619DF81330D1F82A
:1045900000C00CEB4C0C02EBCC0C8CF80530039BF0
:1045A000D1F800C00CEB4C0C02EBCC0CCCF8083072
:1045B000039BD1F800C00CEB4C0C02EBCC0CCCF8FC
:1045C0000C300B6803EB430302EBC3025061086835
:1045D00001300860FFE706B070475FEA400C08BF93
:1045E00091F0000F4FEA8C234FEAC12243EA515168
:1045F0004FEA1C5018BF00F5F0404FEA300018BFDA
:1046000041F000415FEA6C5C00F02980BCF1FF3FA3
:1046100008BF40F080407047130C06BF12044FF0F3
:10462000100C4FF0000C130E04BF12020CF1080C1A
:10463000130F04BF12010CF1040C930F04BF92007E
:104640000CF1020CD30F04BF52000CF1010C114607
:104650004FF00002A0F11F00A0EB0C00704711F01A
:10466000004F08BF704731F000413FF4D5AF0B0C4D
:1046700006BF09044FF0100C4FF0000C0B0E04BFE6
:1046800009020CF1080C0B0F04BF09010CF1040C1A
:104690008B0F04BF89000CF1020CCB0F04BF490043
:1046A0000CF1010CCCF1200322FA03F341EA0301DF
:1046B00002FA0CF2A0EB0C0000F1010070470000C0
:1046C00023F07F4720F07F4C80EA030000F0004099
:1046D000ACEB070303F57C5303F1FF032DE980499D
:1046E00009B44FEA144324EA03484FEA154B25EA7C
:1046F0000B4E0FF2042606EB13273E7803FB0667EA
:10470000C7F5000707FB06F64FEAD64606F1020694
:104710004FEA543707FB066CCCF1005C4FEA1C47AC
:104720002CEA074C0CFB06F507FB06F404EB1546D8
:104730004FEA961649085FEA320234BF00204FF074
:1047400000404FEAD13706FB07FC4FEA1C4C0CFB3C
:104750000BF7D21B03FB0CF761EB07010CFB0EF709
:10476000B0EB074072EB17420CFB08F734BFA2EB2B
:104770000742B2EB074261EB17414FEA0C444FEAA4
:10478000910706FB07FC4FEA1C4C0CFB0BF7B0EB48
:10479000C74072EB573203FB0CF734BFA2EBC742A2
:1047A000B2EBC74261EB57310CFB0EF7B0EBC70021
:1047B00072EB57720CFB08F734BFA2EBC702B2EBE7
:1047C000C70261EB57714FEA816141EA92114FEAEA
:1047D000826242EA90124FEA806004EBCC04039FAD
:1047E0004FEAD13706FB07FC4FEA1C4C0CFB0BF7DA
:1047F000D21B03FB0CF761EB07010CFB0EF7B0EBD0
:10480000074072EB17420CFB08F734BFA2EB0742DC
:10481000B2EB074261EB17414FEA8C5504EB9C2445
:104820004FEA910706FB07FC4FEA1C4C0CFB0BF709
:10483000B0EBC74072EB573203FB0CF734BFA2EB6F
:10484000C742B2EBC74261EB57310CFB0EF7B0EB3E
:10485000C70072EB57720CFB08F734BFA2EBC7021C
:10486000B2EBC70261EB57714FEA816141EA9211E5
:104870004FEA826242EA90124FEA806015EB4C25C3
:1048800044F100044FEAD13706FB07FC4FEA1C4C09
:104890000CFB0BF7D21B03FB0CF761EB07010CFBC6
:1048A0000EF7B0EB074072EB17420CFB08F734BF72
:1048B000A2EB0742B2EB074261EB17414FEA8131AD
:1048C00041EA92414FEA823242EA90424FEA803016
:1048D0004FEA0C7615EB1C1544F1000448EA03433B
:1048E0004EEA0B484FF0000EB2EB080C71EB0307D9
:1048F00024BF624639464EEB0E0E4FF0000B0018F7
:10490000524149414BEB0B0BB2EB080C71EB030727
:104910007BF1000B24BF624639464EEB0E0E4FF082
:10492000000B0018524149414BEB0B0BB2EB080C4A
:1049300071EB03077BF1000B24BF624639464EEB57
:104940000E0E51EA020718BF46F0010616EB0E766E
:1049500055F1000254F1000103D5BDE88901BDE81D
:104960000088BDE88901BDE80048B619524141EB15
:104970000101A3F10103704780807F7E7D7C7B7AFB
:104980007978777676757473727171706F6E6E6DFB
:104990006C6C6B6A6A6968686766666564646363A1
:1049A00062616160605F5F5E5E5D5D5C5C5B5B5A27
:1049B0005A59595858575756565555555454535394
:1049C00052525251515050504F4F4F4E4E4D4D4DEF
:1049D0004C4C4C4B4B4B4A4A4A494949484848473A
:1049E0004747474646464545454444444443434378
:1049F00043424242424141419C46002B30D4770021
:104A00002BD04FEA37071CB503B44FF010004FF01E
:104A10001001BAF1000F06D0BCF1000FDCBF40F06E
:104A2000080040F008014FF000000FBCBDE8104046
:104A30000BF1010BBBF1010F08BF5FEA170722BFA3
:104A400012F1010211F101014FF0004143F10003A5
:104A500000F0004043EA00007047F9D35708D0E760
:104A600046EA06464FEA164613F1400F1FDD13F1E2
:104A7000200FDFBF16430A46002120335B42BED021
:104A8000C3F1200746EA06464FEA164602FA07F740
:104A900046EA070622FA03F2C3F1200701FA07F7F4
:104AA00042EA070221FA03F14FF00003A7E746EAC2
:104AB000020646EA06464FEA164646EA0106BCBF2B
:104AC00046EA0646360C4FF000034FF000024FF066
:104AD000000194E72DE9804C70B49A46934691E822
:104AE000380007C831EA400C48BF34EA430C03D50C
:104AF000FFF7E6FDFFF780FFF0BCBDE8008C2DE975
:104B0000804C70B49A46934691E8380007C810F07C
:104B1000804F08BF13F0804F03D100F005F8FFF776
:104B20006BFFF0BCBDE8008C20F07F4723F07F4C8A
:104B300080EA030000F0004007EB0C03A3F57C5370
:104B4000A3F1FE0392F0000F00F0B38095F0000F88
:104B500000F077802DE901494FEA114021EA004831
:104B60004FEA144624EA064700FB06FC08FB06F65B
:104B700007FB08F818EB06484CEB164C00FB07F750
:104B800018EB07484CEB17404FEA124B22EA0B4E4A
:104B90004FEA154625EA06470BFB06FC0EFB06F618
:104BA00007FB0EFE1EEB064E4CEB164C0BFB07F7FD
:104BB0001EEB074E4CEB174B18EB0B0840F10000B7
:104BC00018EB0E0B58EB000840F100008F1A4FF065
:104BD00000014FF000063CBFC943661B14BFB5EB94
:104BE000040C00213CBFC943F61B4FEA174427EAD7
:104BF00004454FEA1C472CEA074C04FB076205FBFF
:104C000007F70CFB05F616EB074642EB174204FBD1
:104C10000CFC16EB0C4642EB1C421BEB060658EB59
:104C2000020241414EEA8E0E46EA9E0601D5BDE8DB
:104C30000189B619524141EB0101A3F10103BDE81D
:104C400001894FEA144524EA05464FEA114721EA53
:104C5000074C05FB07F406FB07F70CFB06F111EB0D
:104C6000074144EB174405FB0CFC11EB0C4144EBF2
:104C70001C444FEA124722EA074C05FB07F206FBE9
:104C800007F70CFB06F616EB074642EB174205FB4F
:104C90000CFC16EB0C4642EB1C456A1854F1000163
:104CA00048BF7047B619524141EB0101A3F101031E
:104CB000704795F0000F37D04FEA114221EA0246C3
:104CC0004FEA144724EA074C02FB07F106FB07F7FB
:104CD0000CFB06F414EB074441EB174102FB0CFC00
:104CE00014EB0C4441EB1C414FEA154725EA074CF5
:104CF00002FB07F506FB07F70CFB06F616EB07466B
:104D000045EB174502FB0CFC16EB0C4645EB1C4231
:104D1000121951F1000148BF7047B619524141EBD9
:104D20000101A3F1010370474FEA144524EA054647
:104D30004FEA114721EA074C05FB07F106FB07F78D
:104D40000CFB06F212EB074241EB174105FB0CFC92
:104D500012EB0C4251EB1C414FF0000648BF70476C
:104D6000921841EB0101A3F10103704703B40198CC
:104D70004100009850EAC12018BF04204A0D18BF16
:104D800040F0010040F2FF72B2EB515F08BF40F00B
:104D90000200012808BF052002B0704730380A28F9
:104DA00001D20120704700207047000010B5002993
:104DB0000AD00878002807D005487844FCF7D8FBCB
:104DC000002801D0002010BD0248784410BD00002A
:104DD000EA010000E201000010B500290AD00878BD
:104DE000002807D005487844FCF7C2FB002801D012
:104DF000002010BD0248784410BD0000DA01000018
:104E0000D2010000F1EE100A4FF6FF71C0F2C0317E
:104E100020EA010040F04070E1EE100A7047FBF715
:104E2000B1BFFCF7E5B80000000000000000000082
:104E300030313233343536373839414243444546D0
:104E400040305800303132333435363738396162CA
:104E500063646566403078000400000800000000CC
:104E600000000002000100001030313233343536CA
:104E70003738396162636465667870003031323387
:104E8000343536373839414243444546585000009E
:104E900002400000000000A00000000005400000EB
:104EA000000000C8000000000C4000000000409C12
:104EB00000000000194000000020BCBE00000000FF
:104EC00034400000BFC91B8E00000004B540000044
:104ED000504BCFD06607E2CF010000006C410000CC
:104EE0003E8251AADFEEA73401000000D942000043
:104EF000DCB5A0E23A301F97FFFFFFFFB44500008A
:104F0000FD25A0C8E9A3C14FFFFFFFFFFF3F000041
:104F10000000008000000000FF3F00000000008053
:104F20000000000000000000000000000102030477
:104F30000607080900000000010203047461736B96
:104F4000322061637175697265642073656D61708B
:104F5000686F72652C206C6F6F703D25640A007459
:104F600061736B3320616371756972656420736569
:104F70006D6170686F72652C206C6F6F703D256479
:104F80000A000000D05000080000002010000000BF
:104F900034020008E050000810000020E82A000059
:104FA000500200081C00000043000000F8FFFFFF53
:104FB0000C0000000E0000000F0000002E0000009A
:104FC0001001000043000000F8FFFFFF00404040D8
:104FD00040404040404041414141414040404040CC
:104FE0004040404040404040404040404005020278
:104FF0000202020202020202020202020220202037
:105000002020202020202002020202020202909092
:105010009090909010101010101010101010101090
:1050200010101010101010100202020202028888E4
:1050300088888888080808080808080808080808F0
:1050400008080808080808080202020240000000D8
:105050000000000000000000000000000000000050
:105060000000000000000000000000000000000040
:105070000000000000000000000000000000000030
:105080000000000000000000000000000000000020
:105090000000000000000000000000000000000010
:1050A0000000000000000000000000000000000000
:1050B00000000000000000000000000000000000F0
:1050C00000000000000000000000000000000000E0
:1050D0000024F400010000001000000000000000A7
:04000005080001F9F5
:00000001FF
